:100000000C9473000C94A20B0C94B4060C94CB0BC0
:100010000C94930D0C94570D0C9490000C9490003C
:100020000C9490000C9490000C94420C0C942E07AD
:100030000C9490000C940F0E0C94380E0C94610EDE
:100040000C9409080C9490000C9490000C9490006F
:100050000C949000D00099009900990099009900A3
:1000600099009900990099009900990099009900C8
:100070009900990099009900AF00F7009900990044
:10008000AC00B800BE00B500BB0099009900990013
:1000900099009900990099009900B2009900E30035
:1000A0001B01ED0009019900990099009900990040
:1000B0009900990099009900990000019900990010
:1000C0009900990099009900990099009900990068
:1000D000990099009900C100990099009900E800E1
:1000E0002001F200120111241FBECFE5D8E0DEBFCF
:00000001FF