S0180000464F54415F41434B5F4D61696E4543552E73726563F3
S11300000C942A000C9441060C946A060C949306F2
S11300100C9447000C9447000C9447000C94470040
S11300200C9447000C9447000C9447000C94470030
S11300300C9447000C94FF060C9428070C94510769
S11300400C9447000C9447000C9447000C94470010
S11300500C94470011241FBECFE5D8E0DEBFCDBF0E
S113006010E0A0E6B0E0EAE5F8E102C005900D92E8
S1130070A037B107D9F710E0A0E7B0E001C01D92A6
S1130080AC37B107E1F70E9457000C942B0C0C9489
S1130090000081E40E94D50683E090E062E070E015
S11300A00E943B0281E490E00E945E010895CF9398
S11300B0DF930F92CDB7DEB70E94BC060E94C00644
S11300C00E94F90080E060E00E94B10589E490E0BC
S11300D00E942C06CE0101960E94CD06898190E0F3
S11300E00E945E0189818E34A9F789E70E94D506B2
S11300F081E090E062E070E00E943B0289E790E0DA
S11301000E945E01E7CFCF93C82F80FD06C080E038
S113011064E040E00E94670305C080E064E041E0E1
S11301200E9467038C2F869580FD06C080E065E001
S113013040E00E94670305C080E065E041E00E9462
S113014067038C2F8695869580FD06C080E066E067
S113015040E00E94670305C080E066E041E00E9441
S11301606703C695C695C695C0FD06C080E067E0E6
S113017040E00E94670305C080E067E041E00E9420
S11301806703CF910895CF93C82F81E061E040E0E9
S11301900E94670381E062E040E00E9467038C2FC5
S11301A082958F700E94830081E063E041E00E94A9
S11301B067038FE99FE00197F1F700C0000081E039
S11301C063E040E00E9467038C2F0E94830081E07B
S11301D063E041E00E9467038FE99FE00197F1F734
S11301E000C0000081E063E040E00E946703CF911B
S11301F0089581E061E041E00E94D10281E062E083
S113020041E00E94D10281E063E041E00E94D1021A
S113021080E064E041E00E94D10280E065E041E0DA
S11302200E94D10280E066E041E00E94D10280E0B9
S113023067E041E00E94D1028FE795EBA1E0815095
S11302409040A040E1F700C0000081E061E040E0A0
S11302500E94670381E062E040E00E94670382E05D
S11302600E94830081E063E041E00E946703AFE9FC
S1130270BFE01197F1F700C0000081E063E040E0C7
S11302800E94670388E20E94C300B0EFBA95F1F7B9
S11302908CE00E94C30080EF8A95F1F781E00E9410
S11302A0C300AFE3BFE11197F1F700C0000086E09F
S11302B00E94C300B0EFBA95F1F70895CF93C82F09
S11302C081E061E041E00E94670381E062E040E098
S11302D00E9467038C2F82958F700E94830081E0B7
S11302E063E041E00E9467038FE99FE00197F1F723
S11302F000C0000081E063E040E00E9467038C2FAF
S11303000E94830081E063E041E00E9467038FE97B
S11303109FE00197F1F700C0000081E063E040E056
S11303200E946703CF910895CF93DF93EC018881F6
S1130330882331F021960E945E0189918823D9F7A0
S1130340DF91CF9108958F929F92AF92BF92CF92F7
S1130350DF92EF92FF920F931F93CF93DF93CDB76A
S1130360DEB760970FB6F894DEBF0FBECDBF6B014A
S11303707C0120E030E0A9010E94DF0788235CF4BF
S1130380F7FAF094F7F8F0940F2EF0E68F2EF0E0E1
S11303909F2EF02D06C00F2EF2E68F2EF0E09F2E3A
S11303A0F02DC701B6010E94E307DC01CB012DB794
S11303B03EB72A5030400FB6F8943EBF0FBE2DBF53
S11303C00DB71EB70F5F1F4F5E010894A11CB11C2F
S11303D0EDB7FEB7B282A18223E630E0F8013383A1
S11303E022839582848297838683BC0180E090E097
S11303F00E940F089B01AC01C701B6010E947A0755
S113040020E030E44CE156E40E94C1080E94E30776
S1130410DC01CB01F801918780870E9454092DB734
S11304203EB7265F3F4F0FB6F8943EBF0FBE2DBFB9
S1130430C5010E94940160960FB6F894DEBF0FBE0A
S1130440CDBFDF91CF911F910F91FF90EF90DF907F
S1130450CF90BF90AF909F908F90089581E00E94BD
S1130460C3008FE39FE10197F1F700C0000080E82B
S11304700E94C3000895CF93DF9300D000D0CDB77E
S1130480DEB790E8998390EC9A8394E99B8394ED8A
S11304909C838150FE01E60FF11D9081890F0E941B
S11304A0C3008FE99FE00197F1F700C000000F90AF
S11304B00F900F900F90DF91CF9108950F931F939A
S11304C0CF93DF93CDB7DEB7A0970FB6F894DEBF16
S11304D00FBECDBF2DB73EB7285030400FB6F894AD
S11304E03EBF0FBE2DBFEDB7FEB731968E010F5F35
S11304F01F4FADB7BEB712961C930E93119721E10F
S113050030E0338322832DE630E0358324839783E0
S113051086830E9424092DB73EB7285F3F4F0FB64C
S1130520F8943EBF0FBE2DBFC8010E949401A0964F
S11305300FB6F894DEBF0FBECDBFDF91CF911F91F0
S11305400F910895CF93DF93EC01862F642F0E94BF
S11305503B02CE010E945E02DF91CF9108950E947A
S1130560C3000895843028F4683018F441E00E94F0
S1130570D1020895843028F4683018F441E00E94D0
S113058067030895843028F4683018F440E00E942A
S113059067030895843020F4683010F40E94FD034A
S11305A00895843008F08BC0683008F08AC0423067
S11305B008F089C0813041F1813038F0823009F48B
S11305C041C0833009F081C05BC0413071F42AB36B
S11305D081E090E0AC0102C0440F551F6A95E2F738
S11305E0BA01622B6ABB80E008952AB381E090E0EF
S11305F0AC0102C0440F551F6A95E2F7BA01609539
S113060062236ABB80E00895413069F447B321E076
S113061030E0C90102C0880F991F6A95E2F7842B64
S113062087BB80E0089527B381E090E0AC0102C06D
S1130630440F551F6A95E2F7BA016095622367BBC0
S113064080E00895413069F444B321E030E0C90109
S113065002C0880F991F6A95E2F7842B84BB80E05F
S1130660089524B381E090E0AC0102C0440F551F0B
S11306706A95E2F7BA016095622364BB80E008954D
S1130680413071F421B381E090E0AC0102C0440F29
S1130690551F6A95E2F7BA01622B61BB80E00895A9
S11306A021B381E090E0AC0102C0440F551F6A956C
S11306B0E2F7BA016095622361BB80E0089581E0AE
S11306C0089581E0089581E0089580E008958430DC
S11306D008F08BC0683008F08AC0423008F089C046
S11306E0813041F1813038F0823009F441C08330E7
S11306F009F081C05BC0413071F42BB381E090E01C
S1130700AC0102C0440F551F6A95E2F7BA01622B8F
S11307106BBB80E008952BB381E090E0AC0102C094
S1130720440F551F6A95E2F7BA01609562236BBBCB
S113073080E00895413069F448B321E030E0C90114
S113074002C0880F991F6A95E2F7842B88BB80E06A
S1130750089528B381E090E0AC0102C0440F551F16
S11307606A95E2F7BA016095622368BB80E0089558
S1130770413069F445B321E030E0C90102C0880F7B
S1130780991F6A95E2F7842B85BB80E0089525B311
S113079081E090E0AC0102C0440F551F6A95E2F776
S11307A0BA016095622365BB80E00895413071F41D
S11307B022B381E090E0AC0102C0440F551F6A955A
S11307C0E2F7BA01622B62BB80E0089522B381E0B4
S11307D090E0AC0102C0440F551F6A95E2F7BA01DC
S11307E06095622362BB80E0089581E0089581E012
S11307F0089581E0089580E00895843008F045C0AC
S1130800683008F044C08130B1F0813030F082307B
S113081001F1833009F03DC02AC02BB381E090E0A0
S1130820AC0102C0440F551F6A95E2F7BA01622772
S11308306BBB80E0089528B381E090E0AC0102C076
S1130840440F551F6A95E2F7BA01622768BB80E03E
S1130850089525B381E090E0AC0102C0440F551F18
S11308606A95E2F7BA01622765BB80E0089522B376
S113087081E090E0AC0102C0440F551F6A95E2F795
S1130880BA01622762BB80E0089581E0089581E0A7
S1130890089580E00895843008F049C0683008F075
S11308A048C04115510509F446C08130B1F081308A
S11308B030F0823001F1833009F03FC02AC089B39F
S11308C090E09C0102C0359527956A95E2F7B9013D
S11308D06170FA01608380E0089586B390E09C0122
S11308E002C0359527956A95E2F7B9016170FA015E
S11308F0608380E0089583B390E09C0102C0359545
S113090027956A95E2F7B9016170FA01608380E086
S1130910089580B390E09C0102C0359527956A95AF
S1130920E2F7B9016170FA01608380E0089581E023
S1130930089581E0089581E0089580E00895843069
S113094008F045C0683008F044C08130B1F081300F
S113095030F0823001F1833009F03DC02AC02BB35E
S113096081E090E0AC0102C0440F551F6A95E2F7A4
S1130970BA01622B6BBB80E0089528B381E090E05C
S1130980AC0102C0440F551F6A95E2F7BA01622B0D
S113099068BB80E0089525B381E090E0AC0102C01B
S11309A0440F551F6A95E2F7BA01622B65BB80E0DC
S11309B0089522B381E090E0AC0102C0440F551FBA
S11309C06A95E2F7BA01622B62BB80E0089581E088
S11309D0089581E0089580E008958430A8F5813079
S11309E091F0813028F08230C9F0833079F521C04C
S11309F06F3F29F48AB38FEF8ABB80E008958AB3EE
S1130A001ABA80E008956F3F29F487B38FEF87BB4C
S1130A1080E0089587B317BA80E008956F3F29F402
S1130A2084B38FEF84BB80E0089584B314BA80E06C
S1130A3008956F3F29F481B38FEF81BB80E008955F
S1130A4081B311BA80E0089581E0089580E00895AB
S1130A508430A8F4813051F0813028F0823049F09C
S1130A60833079F409C06BBB80E0089568BB80E0F3
S1130A70089565BB80E0089562BB80E0089581E03D
S1130A80089580E00895843000F561157105F9F04A
S1130A90813061F0813028F0823069F08330C9F40C
S1130AA00FC08BB3FB01808380E0089588B3FB0102
S1130AB0808380E0089585B3FB01808380E00895FE
S1130AC082B3FB01808380E0089581E0089581E092
S1130AD0089580E008958430E8F4813061F0813035
S1130AE028F0823069F08330B9F40FC08BB380955D
S1130AF08BBB80E0089588B3809588BB80E008951F
S1130B0085B3809585BB80E0089582B3809582BBD0
S1130B1080E0089581E0089580E008958430E8F449
S1130B20813061F0813028F0823069F08330B9F48B
S1130B300FC08BB38FEF8BBB80E0089588B38FEF2A
S1130B4088BB80E0089585B38FEF85BB80E008956E
S1130B5082B38FEF82BB80E0089581E0089580E046
S1130B600895813071F1813020F0823009F060C045
S1130B7050C0613071F0613028F0623089F0633028
S1130B80E1F415C085B7816085BF85B7826085BFF4
S1130B9014C085B78E7F85BF85B7826085BF0DC0C1
S1130BA085B78E7F85BF85B78D7F85BF06C085B726
S1130BB0816085BF85B78D7F85BF8BB780648BBF10
S1130BC00895613071F0613028F0623089F063304B
S1130BD0E1F415C085B7846085BF85B7886085BF9B
S1130BE014C085B78B7F85BF85B7886085BF0DC06E
S1130BF085B78B7F85BF85B7877F85BF06C085B7DF
S1130C00846085BF85B7877F85BF8BB780688BBFBE
S1130C100895662319F0613041F404C084B78064F8
S1130C2084BF03C084B78F7B84BF8BB780628BBFC4
S1130C300895813049F0813018F0823061F408C0A1
S1130C408BB78F7B8BBF08958BB78F778BBF08953E
S1130C508BB78F7D8BBF0895009721F0909371001F
S1130C60809370000895009721F09093730080930F
S1130C7072000895009721F090937500809374009A
S1130C8008951F920F920FB60F9211242F933F9342
S1130C904F935F936F937F938F939F93AF93BF9380
S1130CA0EF93FF93E0917000F0917100309709F099
S1130CB00995FF91EF91BF91AF919F918F917F9192
S1130CC06F915F914F913F912F910F900FBE0F90B5
S1130CD01F9018951F920F920FB60F9211242F9305
S1130CE03F934F935F936F937F938F939F93AF93B0
S1130CF0BF93EF93FF93E0917200F09173003097EC
S1130D0009F00995FF91EF91BF91AF919F918F9158
S1130D107F916F915F914F913F912F910F900FBEF3
S1130D200F901F9018951F920F920FB60F921124D7
S1130D302F933F934F935F936F937F938F939F93DF
S1130D40AF93BF93EF93FF93E0917400F09175001C
S1130D50309709F00995FF91EF91BF91AF919F9161
S1130D608F917F916F915F914F913F912F910F9050
S1130D700FBE0F901F9018958FB780688FBF08958E
S1130D80529886E880BD87E689B910BC5998579A6D
S1130D90569A559A539A549A0895009729F05F9B4E
S1130DA0FECF2CB1FC01208308958CB98BB185FF53
S1130DB0FDCF08950F931F93CF938C01FC01808185
S1130DC0882351F0C0E00E94D506CF5FF801EC0FF4
S1130DD0F11D80818823B9F7CF911F910F91089558
S1130DE09093770080937600089590937900809390
S1130DF07800089590937B0080937A0008951F9261
S1130E000F920FB60F9211242F933F934F935F933A
S1130E106F937F938F939F93AF93BF93EF93FF93BE
S1130E20E0917600F0917700309709F00995FF91F1
S1130E30EF91BF91AF919F918F917F916F915F914E
S1130E404F913F912F910F900FBE0F901F901895C7
S1130E501F920F920FB60F9211242F933F934F932B
S1130E605F936F937F938F939F93AF93BF93EF930E
S1130E70FF93E0917800F0917900309709F009959B
S1130E80FF91EF91BF91AF919F918F917F916F915E
S1130E905F914F913F912F910F900FBE0F901F9034
S1130EA018951F920F920FB60F9211242F933F9310
S1130EB04F935F936F937F938F939F93AF93BF935E
S1130EC0EF93FF93E0917A00F0917B00309709F063
S1130ED00995FF91EF91BF91AF919F918F917F9170
S1130EE06F915F914F913F912F910F900FBE0F9093
S1130EF01F9018955058BB27AA270ED008C1F9D0C7
S1130F0030F0FED020F031F49F3F11F41EF4EEC017
S1130F100EF4E095E7FBE4C0E92F0AD180F3BA1799
S1130F20620773078407950718F071F49EF522C1D0
S1130F300EF4E0950B2EBA2FA02D0B01B9019001F0
S1130F400C01CA01A0011124FF27591B99F0593F34
S1130F5050F4503E68F11A16F040A22F232F342F7C
S1130F604427585FF3CF469537952795A795F040CA
S1130F705395C9F77EF41F16BA0B620B730B840BDF
S1130F80BAF09150A1F0FF0FBB1F661F771F881F97
S1130F90C2F70EC0BA0F621F731F841F48F48795EF
S1130FA077956795B795F7959E3F08F0B3CF9395DE
S1130FB0880F08F09927EE0F9795879508956CD0C0
S1130FC008F481E00895BCD088F09F5790F0B92FC1
S1130FD09927B751A0F0D1F0660F771F881F991F8A
S1130FE01AF0BA95C9F712C0B13081F0C3D0B1E09C
S1130FF00895C0C0672F782F8827B85F39F0B93FAC
S1131000CCF3869577956795B395D9F73EF490958B
S11310108095709561957F4F8F4F9F4F0895E89409
S113102009C097FB3EF490958095709561957F4F2C
S11310308F4F9F4F9923A9F0F92F96E9BB279395DA
S1131040F695879577956795B795F111F8CFFAF4EA
S1131050BB0F11F460FF1BC06F5F7F4F8F4F9F4F1B
S113106016C0882311F096E911C0772321F09EE879
S1131070872F762F05C0662371F096E8862F70E0DF
S113108060E02AF09A95660F771F881FDAF7880FB9
S11310909695879597F90895990F0008550FAA0B0F
S11310A0E0E8FEEF16161706E807F907C0F0121677
S11310B01306E407F50798F0621B730B840B950B7A
S11310C039F40A2661F0232B242B252B21F40895CF
S11310D00A2609F4A140A6958FEF811D811D08956C
S11310E097F99F6780E870E060E008959FEF80ECD7
S11310F0089500240A94161617061806090608957A
S113110000240A9412161306140605060895092EDF
S11311100394000C11F4882352F0BB0F40F4BF2B4E
S113112011F460FF04C06F5F7F4F8F4F9F4F08958E
S113113057FD9058440F551F59F05F3F71F0479584
S1131140880F97FB991F61F09F3F79F08795089569
S1131150121613061406551FF2CF4695F1DF08C088
S1131160161617061806991FF1CF869571056105A5
S113117008940895E894BB2766277727CB0197F94D
S113118008950BD0C4CFB5DF28F0BADF18F095234B
S113119009F0A6CFABCF1124EECFCADFA0F3959F01
S11311A0D1F3950F50E0551F629FF001729FBB274A
S11311B0F00DB11D639FAA27F00DB11DAA1F649FF6
S11311C06627B00DA11D661F829F2227B00DA11DA9
S11311D0621F739FB00DA11D621F839FA00D611D2F
S11311E0221F749F3327A00D611D231F849F600D50
S11311F0211D822F762F6A2F11249F5750408AF089
S1131200E1F088234AF0EE0FFF1FBB1F661F771F14
S1131210881F91505040A9F79E3F510570F060CF50
S1131220AACF5F3FECF3983EDCF3869577956795FC
S1131230B795F795E7959F5FC1F7FE2B880F911D32
S11312409695879597F90895AEE0B0E0EAE2F9E063
S11312500C94020C0D891E898F89988D26E02C83AD
S11312601A83098397FF02C080E090E801979E8368
S11312708D83AE01455E5F4FCE010196698D7A8DF7
S11312800E9476094D815E8157FD0AC02F81388501
S1131290421753070CF49A01020F131FF80110822E
S11312A02E96E4E00C941E0CAEE0B0E0EAE5F9E022
S11312B00C94020C0D891E8986E08C831A830983A1
S11312C08FEF9FE79E838D83AE01475E5F4FCE0114
S11312D001966F89788D0E947609EF81F885E00F79
S11312E0F11F10822E96E4E00C941E0CADE0B0E0E9
S11312F0ECE7F9E00C94F40B3C017D876C875A0110
S1131300FC0117821682838181FFC8C12E010894D3
S1131310411C511CF3019381EC85FD8593FD85915E
S113132093FF8191FD87EC87882309F4B3C185324B
S113133041F493FD859193FF8191FD87EC8785327C
S113134029F490E0B3010E946A0BE4CFFF24EE2459
S113135010E01032B0F48B3269F08C3228F4803211
S113136051F0833271F40BC08D3239F0803349F47B
S113137011602CC01260146029C0186027C010616D
S113138025C017FD2EC0282F20532A3098F416FFAD
S113139008C08F2D880FF82EFF0CFF0CF80EF20EEC
S11313A015C08E2D880FE82EEE0CEE0CE80EE20E22
S11313B010620CC08E3221F416FD6CC1106406C09C
S11313C08C3611F4106802C0883659F4EC85FD851A
S11313D093FD859193FF8191FD87EC87882309F024
S11313E0B8CF982F9554933018F09052933038F426
S11313F024E030E0A20EB31E3FE339830FC08336EE
S113140031F0833781F0833509F05AC022C0F501E9
S11314108081898322E030E0A20EB31E21E0C22E37
S1131420D12C420114C092E0292E312C2A0C3B1CF1
S1131430F5018080918016FF03C06F2D70E002C01B
S11314406FEF7FEFC4010E945F0B6C0151011F77A6
S113145015C082E0282E312C2A0C3B1CF50180801B
S1131460918016FF03C06F2D70E002C06FEF7FEF15
S1131470C4010E94540B6C011068510113FD1CC07F
S113148006C080E290E0B3010E946A0BEA948E2DBC
S113149090E0C816D906A8F30FC0F40117FD859192
S11314A017FF81914F0190E0B3010E946A0BE11094
S11314B0EA940894C108D108C114D10471F7E7C0B3
S11314C0843611F0893651F5F50117FF07C0808184
S11314D09181A281B38124E030E008C080819181B0
S11314E0AA2797FDA095BA2F22E030E0A20EB31EE2
S11314F0012F0F76B7FF08C0B095A0959095819500
S11315009F4FAF4FBF4F0068BC01CD01A2012AE03D
S113151030E00E94960BD82ED4183FC0853721F4B2
S11315201F7E2AE030E020C0197F8F36A9F0803773
S113153020F4883509F0AEC00BC0803721F088371D
S113154009F0A8C001C0106114FF09C0146007C0ED
S113155014FF08C0166006C028E030E005C020E192
S113156030E002C020E132E0F50117FF07C06081DE
S113157071818281938144E050E006C06081718171
S113158080E090E042E050E0A40EB51EA2010E946B
S1131590960BD82ED418012F0F7706FF09C00E7FA3
S11315A0DF1430F404FF06C002FD04C00F7E02C045
S11315B01D2D01C01F2D802F90E004FF0CC0FE01E3
S11315C0ED0DF11D2081203311F4097E09C002FFC5
S11315D006C01E5F05C086789070009709F01F5FF3
S11315E0802E992403FD12C000FF0DC0FD2C1E1592
S11315F050F4FE0CF11A1E2D06C080E290E0B301F7
S11316000E946A0B1F5F1E15C0F304C01E1510F460
S1131610E11A01C0EE2484FE0FC080E390E0B30120
S11316200E946A0B82FE1FC081FE03C088E590E021
S113163010C088E790E00DC0C401867890700097D0
S113164091F081FC02C080E201C08BE207FD8DE2D3
S113165090E0B3010E946A0B06C080E390E0B301FE
S11316600E946A0BFA94DF14C0F3DA94F201ED0DD0
S1131670F11D808190E0B3010E946A0BDD20A9F77F
S113168006C080E290E0B3010E946A0BEA94EE2067
S1131690C1F740CEF3018681978102C08FEF9FEF9F
S11316A02D96E2E10C94100CFC0105906150704001
S11316B00110D8F7809590958E0F9F1F0895FC0117
S11316C06150704001900110D8F7809590958E0F6D
S11316D09F1F08950F931F93CF93DF938C01EB010A
S11316E08B8181FF1BC082FF0DC02E813F818C81C5
S11316F09D812817390764F4E881F9810193F983FE
S1131700E88306C0E885F985802F0995009731F4B0
S11317108E819F8101969F838E8302C00FEF1FEFFE
S1131720C801DF91CF911F910F910895FA01AA2763
S1131730283051F1203181F1E8946F936E7F6E5F10
S11317407F4F8F4F9F4FAF4FB1E03ED0B4E03CD0BE
S1131750670F781F891F9A1FA11D680F791F8A1FA1
S1131760911DA11D6A0F711D811D911DA11D20D008
S113177009F468943F912AE0269F11243019305DC2
S11317803193DEF6CF010895462F4770405D4193B3
S1131790B3E00FD0C9F7F6CF462F4F70405D4A3300
S11317A018F0495D31FD4052419302D0A9F7EACFC8
S11317B0B4E0A6959795879577956795BA95C9F7F7
S11317C000976105710508959B01AC010A2E0694EA
S11317D05795479537952795BA95C9F7620F731FA3
S11317E0841F951FA01D08952F923F924F925F92E0
S11317F06F927F928F929F92AF92BF92CF92DF921D
S1131800EF92FF920F931F93CF93DF93CDB7DEB781
S1131810CA1BDB0B0FB6F894DEBF0FBECDBF099415
S11318202A88398848885F846E847D848C849B846C
S1131830AA84B984C884DF80EE80FD800C811B817A
S1131840AA81B981CE0FD11D0FB6F894DEBF0FBEA9
S10D1850CDBFED010895F894FFCF19
S113185A2D0000257325642E253034640025640088
S9030000FC
